:100000000C942A000C9434000C9434000C943400AA
:100010000C9434000C9434000C9434000C94340090
:100020000C9434000C9434000C9434000C94340080
:100030000C9434000C9434000C9434000C94340070
:100040000C9434000C9434000C9434000C94340060
:100050000C94340011241FBECFE5D8E0DEBFCDBF25
:100060000E9450000C946E000C94000010BC83E3BE
:1000700089B988E18AB986E880BD08955F9BFECF83
:100080008CB108951BBA089585E08BBB08958AE072
:100090008BBB089584E08BBB089581E08BBB0895F2
:1000A0008FEF8ABB1BBA0E943600C4E0D1E01AE091
:1000B00005E00E943E008C3479F030F4823451F037
:1000C000863431F01BBAF5CF8235E1F7DBBBF1CFD7
:1000D0000BBBEFCF1BBBEDCFCBBBEBCFF894FFCF70
:00000001FF
