:100000000C942A000C942D010C9447000C9447008A
:100010000C9447000C9464010C9447000C94470026
:100020000C9447000C9447000C9447000C94470034
:100030000C9447000C94FA000C9447000C94470071
:100040000C9447000C9447000C9447000C94470014
:100050000C94470011241FBECFE5D8E0DEBFCDBF12
:1000600011E0A0E6B0E0EAE3F0E102C005900D92F5
:10007000A834B107D9F721E0A8E4B1E001C01D928E
:10008000A536B207E1F70E94AE010C941B080C9450
:10009000000090BD89B988E98AB986E880BD0895D5
:1000A0005D9BFECF8CB90895CF93DF93EC018991CE
:1000B000811103C0DF91CF9108950E945000F7CFC6
:1000C0008D9A8FB582608FBD8EB588618EBD8EB5DD
:1000D00082608EBD8FE19EE497BD86BD08958FB589
:1000E00080688FBD08958FB58F738FBD0895CF93AE
:1000F000DF93EC010E946F00DBBDCABD2FEF81EEE4
:1001000094E0215080409040E1F700C00000DF9172
:10011000CF910C947300BB9A83B7886483BF83B775
:10012000806283BF83B7826083BF1CBE089585361B
:1001300008F084E680934B012FEF829FC0011124C9
:1001400064E670E00E94AF036CBF089515BC82B5F1
:10015000877F82BD08958A988BB780648BBF85B7EF
:10016000816085BF08951BBA1CBE089585E08BBBD6
:1001700080914B010C9497008AE08BBB80914B01DE
:100180000C94970086E08BBB80914B010C949700F8
:1001900084E08BBB80914B010C94970089E08BBB72
:1001A00080914B010C94970081E08BBB80914B01B7
:1001B0000C9497002FEF89E698E121508040904001
:1001C000E1F700C00000939A28E22A95F1F793988E
:1001D00080914E018115E1F3F89480915201909144
:1001E000530110924E0178946AE370E00E94AF03CD
:1001F000CB0108951F921FB61F9211248F939F93D6
:10020000EF93FF938CB18A3011F08D30B9F4809167
:100210005501811549F0E0915501F0E0EA5AFE4F91
:10022000108281E08093540110925501FF91EF916B
:100230009F918F911F901FBE1F901895909155010F
:100240009E30A0F7E091550191E09E0F90935501EB
:10025000F0E0EA5AFE4F8083E9CF1F921FB61F924B
:1002600011242F938F939F9380914F01811115C07B
:1002700014BC109251011092500189B7806489BF5B
:1002800085B5826085BD81E080934F019F918F91FC
:100290002F911F901FBE1F90189515BC89B78F7B9B
:1002A00089BF809150019091510124B5982F8827E2
:1002B000820F911D909353018093520110924F0130
:1002C00081E080934E01E2CF8F938FB78F939F93FE
:1002D000809150019091510101969093510180932A
:1002E00050019F918F918FBF8F9118950E94770039
:1002F0002FEF82E597E0215080409040E1F700C069
:100300000000F89410924E017894939AE8E2EA95EE
:10031000F1F7939889EC90E020914E01211539F086
:1003200080914E0181110CC08FE097E208950197F2
:10033000B9F3EFECF7E03197F1F700C00000ECCF34
:10034000F89480915201909153016AE370E00E9409
:10035000AF03CB0110924E0178940895CDB7DEB76C
:10036000AF970FB6F894DEBF0FBECDBF8FEF8ABB3D
:100370000E94B3008B9A0E9460000E9473008FEA73
:1003800094E00E9477000E948B0086E480934B01EA
:1003900082EB8CBF83E390E00E9449000E94A6009C
:1003A0000E94AB007894812C912C7E0125E1E20E15
:1003B000F11C66246394712C8E010F5F1F4F9DEC1E
:1003C000292E90E0392E80915401811589F1F894FD
:1003D00066E571E0C7010E941405109254017894FB
:1003E00046E050E060E670E0C7010E941B05EEA603
:1003F000FFA6892B09F06EC0CE014B960E94ED043A
:100400002C010E949700C20199279F938F9387E642
:1004100090E09F938F931F930F930E943105C80123
:100420000E9454000F900F900F900F900F900F901C
:100430002FEF80E792E0215080409040E1F700C02C
:10044000000080914F01811105C0939A28E22A95FE
:10045000F1F7939880914E01811539F1F8948091CC
:100460005201909153016AE370E00E94AF037093D0
:100470004D0160934C0110924E01789480914C0193
:1004800090914D019F938F9388EC90E09F938F9371
:100490001F930F930E943105C8010E9454000F90D2
:1004A0000F900F900F900F900F9080914A0181153F
:1004B00009F489CF809148019091490182309105DA
:1004C00009F4A2C008F079C0892B09F080C00E940D
:1004D000B30079CF65E770E0C7010E940B05892B57
:1004E00001F580914A0191E0892780934A010E9499
:1004F000B3008FEA94E00E94770080914A01811551
:1005000049F070924901609248018EE790E00E94A4
:1005100054008ECF10924901109248018EE890E06D
:10052000F6CF80914A01811183CF6FE970E0C70156
:100530000E940B05892B19F40E94B60079CF67EA57
:1005400070E0C7010E940B05892B19F40E94BC00C2
:100550006FCF64EB70E0C7010E940B05892B19F483
:100560000E94C20065CF60EB70E0C7010E940B05DE
:10057000892B19F40E94C8005BCF6DEB70E0C701B6
:100580000E940B05892B19F40E94CE0051CF69EB14
:1005900070E0C7010E940B05892B19F40E94D4005A
:1005A00047CF63EC70E08EA59FA50E940B05892BB9
:1005B00009F03ECF0E94B3003BCF8330910509F490
:1005C000ABC0049709F0FFCE0E94D400A7C00E94E0
:1005D000B60080914C0190914D01892B09F4F3CE26
:1005E00080914C0190914D014A9708F0ECCE0E9409
:1005F000B30085ED90E00E94540082E090E090937B
:10060000490180934801DFCE0E94B30083E398E064
:100610000E9476016C018DEE90E00E945400DF9202
:10062000CF923F922F92FF92EF920E943105C70125
:100630000E94540081EC91E00E9476015C0187EFFA
:1006400090E00E945400BF92AF923F922F921F936E
:100650000F930E943105C8010E9454008FEA94E074
:100660000E9477009FEF2EE984E291502040804065
:10067000E1F700C000000FB6F894DEBF0FBECDBF9B
:10068000AC14BD04D8F582E091E00E9454000E94B1
:10069000C80083E090E09093490180934801B6013F
:1006A00080E090E00E94F20320E030E040E05FE371
:1006B0006CA37DA38EA39FA36CA17DA18EA19FA1FE
:1006C0000E94580468A779A78AA79BA768A579A55F
:1006D0008AA59BA50E94C3036CA77DA78CA49DA49B
:1006E0008FEA94E00E9477009FEF21EE84E0915022
:1006F00020408040E1F700C0000065CE82E191E03B
:100700000E9454000E94D40084E090E0909349013C
:10071000809348016501C3CF0E94C80080914C01BD
:1007200090914D018815990508F44DCE80914C01AA
:1007300090914D014A9708F446CE83E291E00E94E1
:10074000540070924901609248010E94B3009FEFEB
:1007500024E38CE0915020408040E1F7CCCFAA1BED
:10076000BB1B51E107C0AA1FBB1FA617B70710F09C
:10077000A61BB70B881F991F5A95A9F780959095CE
:10078000BC01CD0108950E94370488F09F5798F06E
:10079000B92F9927B751B0F0E1F0660F771F881F86
:1007A000991F1AF0BA95C9F714C0B13091F00E94A0
:1007B0005104B1E008950C945104672F782F8827D5
:1007C000B85F39F0B93FCCF3869577956795B395C7
:1007D000D9F73EF490958095709561957F4F8F4F36
:1007E0009F4F0895E89409C097FB3EF4909580953B
:1007F000709561957F4F8F4F9F4F9923A9F0F92FE7
:1008000096E9BB279395F695879577956795B79564
:10081000F111F8CFFAF4BB0F11F460FF1BC06F5F4A
:100820007F4F8F4F9F4F16C0882311F096E911C05C
:10083000772321F09EE8872F762F05C0662371F07D
:1008400096E8862F70E060E02AF09A95660F771F91
:10085000881FDAF7880F9695879597F9089557FDC1
:100860009058440F551F59F05F3F71F04795880F1E
:1008700097FB991F61F09F3F79F0879508951216B5
:1008800013061406551FF2CF4695F1DF08C0161661
:1008900017061806991FF1CF869571056105089412
:1008A0000895E894BB2766277727CB0197F9089529
:1008B0000E946B040C94DC040E94CE0438F00E9469
:1008C000D50420F0952311F00C94C5040C94CB04AE
:1008D00011240C9452040E942F0470F3959FC1F3CD
:1008E000950F50E0551F629FF001729FBB27F00DDE
:1008F000B11D639FAA27F00DB11DAA1F649F662733
:10090000B00DA11D661F829F2227B00DA11D621F81
:10091000739FB00DA11D621F839FA00D611D221F3B
:10092000749F3327A00D611D231F849F600D211D1F
:10093000822F762F6A2F11249F5750409AF0F1F0A2
:1009400088234AF0EE0FFF1FBB1F661F771F881F0B
:1009500091505040A9F79E3F510580F00C94C5047A
:100960000C9452045F3FE4F3983ED4F38695779558
:100970006795B795F795E7959F5FC1F7FE2B880FB1
:10098000911D9695879597F9089597F99F6780E847
:1009900070E060E008959FEF80EC089500240A94D1
:1009A0001616170618060906089500240A9412164A
:1009B0001306140605060895092E0394000C11F47D
:1009C000882352F0BB0F40F4BF2B11F460FF04C02A
:1009D0006F5F7F4F8F4F9F4F0895FC0188279927A6
:1009E000E89421912032E9F3293010F02E30C8F339
:1009F0002B3241F02D3239F4689404C00E9429054D
:100A0000820F911D219120532A30C0F31EF490953E
:100A100081959F4F0895FB01DC018D910190801914
:100A20000110D9F3990B0895FB01DC0101900D929F
:100A30000020E1F70895FB01DC014150504030F007
:100A40008D910190801919F40020B9F7881B990B3A
:100A500008957AE0979F902D879F802D910D112406
:100A60000895AEE0B0E0E7E3F5E00C94F2070D89FD
:100A70001E8986E08C831A8309838FEF9FE79E830C
:100A80008D83AE01475E5F4F6F89788DCE010196F1
:100A90000E9454052F813885020F131FF801108220
:100AA0002E96E4E00C940E08ABE0B0E0EAE5F5E049
:100AB0000C94E5076C017B018A01FC011782168208
:100AC000838181FFDAC19AE0492EF6012381F70183
:100AD00023FD859123FF81917F01811509F41FC1B9
:100AE000853239F423FD959123FF91917F01953251
:100AF00029F4B60190E00E945607E7CF30E0612C60
:100B0000512C712CF0E27F1640F59B32D9F058F44D
:100B10009032D1F09332F1F09E3299F576FCFFC01D
:100B2000689476F806C09D3291F09033C1F46894D1
:100B300070F8F70123FD959123FF91917F019111A9
:100B4000E1CF29C0689471F8689472F8F2CF689484
:100B500073F8EFCF689474F8ECCF77FC1CC080ED8D
:100B6000890F8A30C8F676FE05C0649C800D11247A
:100B7000682EDFCF549C800D1124582E689475F890
:100B8000D8CF9C3619F4689477F8D3CF9C3409F405
:100B90004BC0983671F2892F8F7D8554833008F4CD
:100BA00045C0933609F466C0933709F469C093359C
:100BB00009F475C0943619F0993609F09FC0F80110
:100BC00077FE95C061917191819191918F01272D4F
:100BD0002F76722E97FF09C090958095709561953C
:100BE0007F4F8F4F9F4F689477F82AE030E0AE0137
:100BF0004F5F5F4F5A010E9486078A19A82E76FE22
:100C0000C5C0872D8E7FA61408F0BFC074FE12C128
:100C100072FC06C1F72DFE7E7F2EB62C872D8678BE
:100C2000811509F4C0C001C131E083CF3115F9F05D
:100C3000085F1F4F8FE3898388248394912CAE0132
:100C40004F5F5F4F5A01E89477F873FC03C0851437
:100C50009104B0F181149104D1F5511409F435CF08
:100C6000B60180E290E00E9456075A94F6CF0C5FDE
:100C70001F4FE0CFF801808189830E5F1F4FDCCFCB
:100C8000F801A190B1908F01662D70E076FC02C052
:100C90006FEF7FEFC5010E944B074C01D4CFF801E5
:100CA000A190B1908F01662D70E076FC02C06FEFCD
:100CB0007FEFC5010E9440074C01689477F8C5CFCB
:100CC000B60180E290E00E9456075A94C0CFF50129
:100CD00077FC859177FE81915F01B60190E00E94DB
:100CE000560751105A94F1E08F1A9108B3CF6191D1
:100CF0007191072E000C880B990B68CF372CE89464
:100D000034F82AE030E0953739F1572D597F352EE8
:100D1000903799F058F49835A9F09F36D9F0F6013C
:100D2000868197812B96E1E10C9401089837B9F7F9
:100D300074FC05C020E130E00FC0689434F868947A
:100D400032F8F8CF74FE03C0872D8660382E20E17C
:100D500032E002C028E030E0F80137FE11C06191B6
:100D60007191819191918F01FE0131965F01AF01E7
:100D70000E9486078A19A82E732CE89477F83FCF33
:100D80006191719180E090E0EECF782EBA2C74FEE4
:100D900045CFFE01EA0DF11D8081803309F043C08B
:100DA000272D297E722E73FC0EC070FE4FC06A2C58
:100DB000B51418F4650C6B18B52C852D8B195B14C4
:100DC00008F480E0B80EB51408F042C05B1874FE59
:100DD00041C0B60180E390E00E94560772FE09C050
:100DE00088E590E071FC02C088E790E0B6010E94BF
:100DF0005607A614D8F1AA94B12C4FEFA41AB40A3E
:100E0000CE0101963C01A80EB91EF50182915F0149
:100E1000B60190E00E9456076A147B04B1F71DCF1B
:100E2000B62C782EB6CF72FC02C0B394BCCFB3946C
:100E3000B394B9CFB62C782EF1CEB60180E290E013
:100E40000E94560733943514C0F3B7CF3B2CFBCF29
:100E5000512CBDCF872D8678811559F280E271FC27
:100E60008BE277FC8DE2B60190E0C1CFB60180E362
:100E700090E00E9456076A94BCCF8FEF9FEF52CF4D
:100E8000FC010590615070400110D8F78095909555
:100E90008E0F9F1F0895FC0161507040019001105A
:100EA000D8F7809590958E0F9F1F08950F931F93ED
:100EB000CF93DF93182F092FEB018B8181FD09C0A0
:100EC0001FEF0FEF812F902FDF91CF911F910F9187
:100ED000089582FF14C02E813F818C819D81281747
:100EE00039073CF4E881F981CF0101969983888321
:100EF00010838E819F8101969F838E83E3CFE88547
:100F0000F985812F0995892BA1F3DACFFA01AA2758
:100F1000283051F1203181F1E8946F936E7F6E5F3C
:100F20007F4F8F4F9F4FAF4FB1E03ED0B4E03CD0EA
:100F3000670F781F891F9A1FA11D680F791F8A1FCD
:100F4000911DA11D6A0F711D811D911DA11D20D034
:100F500009F468943F912AE0269F11243019305DEE
:100F60003193DEF6CF010895462F4770405D4193DF
:100F7000B3E00FD0C9F7F6CF462F4F70405D4A332C
:100F800018F0495D31FD4052419302D0A9F7EACFF4
:100F9000B4E0A6959795879577956795BA95C9F723
:100FA00000976105710508959B01AC010A2E069416
:100FB0005795479537952795BA95C9F7620F731FCF
:100FC000841F951FA01D08952F923F924F925F920C
:100FD0006F927F928F929F92AF92BF92CF92DF9249
:100FE000EF92FF920F931F93CF93DF93CDB7DEB7AE
:100FF000CA1BDB0B0FB6F894DEBF0FBECDBF099442
:101000002A88398848885F846E847D848C849B8498
:10101000AA84B984C884DF80EE80FD800C811B81A6
:10102000AA81B981CE0FD11D0FB6F894DEBF0FBED5
:0A103000CDBFED010895F894FFCF45
:10103A0053706565643A0053706565645365743A24
:10104A0025750D0A004175746F6D617465004175EF
:10105A00746F6D6174696F6E204F4E0D0A00417591
:10106A00746F6D6174696F6E204F46460D0A0046B3
:10107A006F7277617264004261636B7761726400B8
:10108A00536F66744C65667400536F667452696771
:10109A0068740053746F7000446973743A2575203C
:1010AA00636D0D0A004F62737461636C652120538E
:1010BA0063616E6E696E672E2E2E0D0A004C656690
:1010CA0074446973743A0052696768744469737442
:1010DA003A005475726E696E67204C6566742E0DFF
:1010EA000A005475726E696E672052696768742EB9
:1010FA000D0A005061746820636C65617220616832
:10110A006561642E204D6F76696E6720466F72772F
:08111A006172642E0D0A000051
:00000001FF
