:100000000C942A000C947D000C9447000C9447003B
:100010000C9447000C9447000C9447000C94470044
:100020000C9447000C9447000C9447000C94AB00D0
:100030000C9447000C9447000C9447000C94470024
:100040000C9447000C9447000C9447000C94470014
:100050000C94470011241FBECFE5D8E0DEBFCDBF12
:1000600010E0A0E6B0E0E4E1F9E002C005900D92F6
:10007000A83CB107D9F720E0A8ECB0E001C01D9280
:10008000A53EB207E1F70E94CD000C9488040C94C1
:10009000000010BC83E389B988E18AB986E880BD95
:1000A00008955F9B02C08CB1089580E008955D9B28
:1000B000FECF8CB90895CF93DF93EC018991811124
:1000C00003C0DF91CF9108950E945700F7CF1BBA6C
:1000D000089585E08BBB08958AE08BBB089584E08A
:1000E0008BBB089581E08BBB089513BE83B78560F9
:1000F00083BF89B7816089BF08951F921FB61F9281
:1001000011248F939F938091E1009091E200892BBD
:1001100089F41DBC1CBC8EB581608EBD81E090E071
:100120009093E2008093E1009F918F911F901FBEFA
:100130001F9018951EBC8CB59DB59093E4008093DC
:10014000E3001DBC1CBC1092E2001092E10081E0B3
:100150008093E000E9CF1F921FB61F9211248F9366
:100160009F938091C8008F5F8093C8008091C800E2
:10017000833068F01092C8008091E1009091E20015
:10018000009729F4939A88E28A95F1F793989F91C2
:100190008F911F901FBE1F9018958FEF8ABB1BBABF
:1001A0000E9449008B9A8A988BB780648BBF85B771
:1001B000816085BF0E947500789400E010E0D1E076
:1001C00080EDA82EBB24B39491E8E92E90E0F92E9F
:1001D00029ECC22E20E0D22E34E0632E4AE0542EC9
:1001E00055E0752E88248394912C0E945100C82FCD
:1001F000813479F48091DF008D278093DF00809136
:10020000DF0081113AC01BBA80E690E00E945B00DB
:10021000C0E08091E0008115F1F0F8948091E30056
:100220009091E400B5010E9476018B011092E000EC
:1002300078941F936F93FF92EF92DF92CF920E9478
:100240009E0189EC90E00E945B000F900F900F9050
:100250000F900F900F908091DF008115A1F1809198
:10026000DD009091DE00009779F0019701F1109286
:10027000DE001092DD001BBA13C01092DE00109257
:10028000DD0081E790E0C2CF0531110528F51BBAEA
:100290009092DE008092DD008FE890E00E945B008B
:1002A0008FE19EE40197F1F700C000009ECFDBBB19
:1002B00003331105A8F37BBA1092DE001092DD0023
:1002C0008AEA90E0EBCFC11559F3CC3469F030F4F1
:1002D000C23441F0C63479F67BBAE2CFC23559F662
:1002E000DBBBDECF5BBADCCF6BBADACF97FB072E76
:1002F00016F4009407D077FD09D00E948A0107FC0C
:1003000005D03EF4909581959F4F08957095619525
:100310007F4F0895AA1BBB1B51E107C0AA1FBB1F3B
:10032000A617B70710F0A61BB70B881F991F5A9581
:10033000A9F780959095BC01CD010895AEE0B0E09D
:10034000E4EAF1E00C945F040D891E8986E08C8359
:100350001A8309838FEF9FE79E838D83AE01475EEB
:100360005F4F6F89788DCE0101960E94C1012F8168
:100370003885020F131FF80110822E96E4E00C94CA
:100380007B04ABE0B0E0E7ECF1E00C9452046C01CC
:100390007B018A01FC0117821682838181FFDAC109
:1003A0009AE0492EF6012381F70123FD859123FF71
:1003B00081917F01811509F41FC1853239F423FD34
:1003C000959123FF91917F01953229F4B60190E038
:1003D0000E94C303E7CF30E0612C512C712CF0E276
:1003E0007F1640F59B32D9F058F49032D1F0933219
:1003F000F1F09E3299F576FCFFC0689476F806C05D
:100400009D3291F09033C1F4689470F8F70123FDA8
:10041000959123FF91917F019111E1CF29C06894BB
:1004200071F8689472F8F2CF689473F8EFCF68941B
:1004300074F8ECCF77FC1CC080ED890F8A30C8F6C9
:1004400076FE05C0649C800D1124682EDFCF549C7D
:10045000800D1124582E689475F8D8CF9C3619F465
:10046000689477F8D3CF9C3409F44BC0983671F276
:10047000892F8F7D8554833008F445C0933609F465
:1004800066C0933709F469C0933509F475C0943692
:1004900019F0993609F09FC0F80177FE95C0619177
:1004A0007191819191918F01272D2F76722E97FF57
:1004B00009C090958095709561957F4F8F4F9F4FA4
:1004C000689477F82AE030E0AE014F5F5F4F5A0141
:1004D0000E94F3038A19A82E76FEC5C0872D8E7F51
:1004E000A61408F0BFC074FE12C172FC06C1F72D3D
:1004F000FE7E7F2EB62C872D8678811509F4C0C02C
:1005000001C131E083CF3115F9F0085F1F4F8FE350
:10051000898388248394912CAE014F5F5F4F5A01E9
:10052000E89477F873FC03C085149104B0F181144A
:100530009104D1F5511409F435CFB60180E290E071
:100540000E94C3035A94F6CF0C5F1F4FE0CFF8010F
:10055000808189830E5F1F4FDCCFF801A190B1909D
:100560008F01662D70E076FC02C06FEF7FEFC50152
:100570000E94B8034C01D4CFF801A190B1908F0133
:10058000662D70E076FC02C06FEF7FEFC5010E9420
:10059000AD034C01689477F8C5CFB60180E290E0D6
:1005A0000E94C3035A94C0CFF50177FC859177FE72
:1005B00081915F01B60190E00E94C30351105A94EB
:1005C000F1E08F1A9108B3CF61917191072E000C61
:1005D000880B990B68CF372CE89434F82AE030E088
:1005E000953739F1572D597F352E903799F058F4BA
:1005F0009835A9F09F36D9F0F601868197812B9620
:10060000E1E10C946E049837B9F774FC05C020E161
:1006100030E00FC0689434F8689432F8F8CF74FE74
:1006200003C0872D8660382E20E132E002C028E02A
:1006300030E0F80137FE11C0619171918191919183
:100640008F01FE0131965F01AF010E94F3038A1909
:10065000A82E732CE89477F83FCF6191719180E0D8
:1006600090E0EECF782EBA2C74FE45CFFE01EA0D55
:10067000F11D8081803309F043C0272D297E722E21
:1006800073FC0EC070FE4FC06A2CB51418F4650CD4
:100690006B18B52C852D8B195B1408F480E0B80E0F
:1006A000B51408F042C05B1874FE41C0B60180E387
:1006B00090E00E94C30372FE09C088E590E071FCDF
:1006C00002C088E790E0B6010E94C303A614D8F1E7
:1006D000AA94B12C4FEFA41AB40ACE0101963C01A2
:1006E000A80EB91EF50182915F01B60190E00E944B
:1006F000C3036A147B04B1F71DCFB62C782EB6CF96
:1007000072FC02C0B394BCCFB394B394B9CFB62CEF
:10071000782EF1CEB60180E290E00E94C3033394BC
:100720003514C0F3B7CF3B2CFBCF512CBDCF872D59
:100730008678811559F280E271FC8BE277FC8DE2BC
:10074000B60190E0C1CFB60180E390E00E94C30300
:100750006A94BCCF8FEF9FEF52CFFC0105906150A0
:1007600070400110D8F7809590958E0F9F1F0895C7
:10077000FC016150704001900110D8F78095909570
:100780008E0F9F1F08950F931F93CF93DF93182F02
:10079000092FEB018B8181FD09C01FEF0FEF812F26
:1007A000902FDF91CF911F910F91089582FF14C078
:1007B0002E813F818C819D81281739073CF4E88187
:1007C000F981CF0101969983888310838E819F815F
:1007D00001969F838E83E3CFE885F985812F099564
:1007E000892BA1F3DACFFA01AA27283051F1203161
:1007F00081F1E8946F936E7F6E5F7F4F8F4F9F4FB5
:10080000AF4FB1E03ED0B4E03CD0670F781F891FF6
:100810009A1FA11D680F791F8A1F911DA11D6A0FC4
:10082000711D811D911DA11D20D009F468943F9177
:100830002AE0269F11243019305D3193DEF6CF0176
:100840000895462F4770405D4193B3E00FD0C9F73C
:10085000F6CF462F4F70405D4A3318F0495D31FDA9
:100860004052419302D0A9F7EACFB4E0A6959795FC
:10087000879577956795BA95C9F7009761057105D2
:1008800008959B01AC010A2E06945795479537951C
:100890002795BA95C9F7620F731F841F951FA01D76
:1008A00008952F923F924F925F926F927F928F9214
:1008B0009F92AF92BF92CF92DF92EF92FF920F93EF
:1008C0001F93CF93DF93CDB7DEB7CA1BDB0B0FB6F9
:1008D000F894DEBF0FBECDBF09942A8839884888B6
:1008E0005F846E847D848C849B84AA84B984C8844C
:1008F000DF80EE80FD800C811B81AA81B981CE0F43
:10090000D11D0FB6F894DEBF0FBECDBFED01089527
:04091000F894FFCF89
:100914004175746F6D6174696F6E204F46460D0AA0
:10092400004175746F6D6174696F6E204F4E0D0ACE
:1009340000446973743A20257520636D0D0A004FD5
:1009440062737461636C6521205475726E696E679D
:100954002052696768742E0D0A0050617468204340
:100964006C65617221204D6F76696E6720466F72E7
:08097400776172642E0D0A0088
:00000001FF
