:100000000C942A000C943C000C943C000C943C0092
:100010000C943C000C943C000C943C000C943C0070
:100020000C943C000C943C000C943C000C943E005E
:100030000C943C000C943C000C943C000C943C0050
:100040000C943C000C943C000C943C000C943C0040
:100050000C943C0011241FBECFE5D8E0DEBFCDBF1D
:1000600020E0A0E6B0E001C01D92A236B207E1F7A1
:100070000E9461000C946C000C9400001F921FB64B
:100080001F9211242F938F939F93809160009091E2
:1000900061000196909361008093600083349F40DB
:1000A00049F498B381E0911180E088BB109261001F
:1000B000109260009F918F912F911F901FBE1F90F3
:1000C0001895109261001092600081E087BB18BA09
:0C00D00083BF89BF7894FFCFF894FFCF66
:00000001FF
