:100000000C942A000C9434000C9434000C943400AA
:100010000C9434000C9434000C9434000C94340090
:100020000C9434000C9434000C9434000C94340080
:100030000C9434000C9434000C9434000C94340070
:100040000C9434000C9434000C9434000C94340060
:100050000C94340011241FBECFE5D8E0DEBFCDBF25
:100060000E944C000C9481000C9400008D9A8FB576
:1000700082608FBD8EB588618EBD8EB582608EBD6B
:100080008FE19EE497BD86BD8FB580688FBD8BEDF7
:1000900095E09BBD8ABD08950E94360047EE53E06F
:1000A0008BED95E02FEC37E05BBD4ABD6FEF7EE94D
:1000B000E4E261507040E040E1F700C000009BBD09
:1000C0008ABD6FEF7EE9E4E261507040E040E1F705
:1000D00000C000003BBD2ABD6FEF7EE9E4E2615045
:1000E0007040E040E1F700C000009BBD8ABD6FEFAB
:1000F0007EE9E4E261507040E040E1F700C00000BA
:06010000D3CFF894FFCFFD
:00000001FF
