:100000000C942A000C9447000C9447000C94470071
:100010000C9447000C9447000C9447000C94470044
:100020000C9447000C9447000C9447000C94470034
:100030000C9447000C9467000C9447000C94470004
:100040000C9447000C9447000C9447000C94470014
:100050000C94470011241FBECFE5D8E0DEBFCDBF12
:1000600010E0A0E6B0E0E6ECF1E002C005900D92F1
:10007000A236B107D9F720E0A2E6B0E001C01D9298
:10008000AA36B207E1F70E949A000C94E1000C94A2
:1000900000008D9A8FB582608FBD8EB588618EBD50
:1000A0008EB582608EBD8FE19EE497BD86BD8FB513
:1000B00080688FBD8FEA94E09BBD8ABD089590BD96
:1000C00089B988E18AB986E880BD579A08951F9258
:1000D0001FB61F9211248F939F93EF93FF938CB1C0
:1000E0008A3011F08D30B9F480916300811549F0A8
:1000F000E0916300F0E0EC59FF4F108281E08093C3
:10010000620010926300FF91EF919F918F911F9079
:100110001FBE1F901895909163009530A0F7E09155
:10012000630091E09E0F90936300F0E0EC59FF4F65
:100130008083E9CF0E94490083E390E00E945F0042
:10014000789467EE73E041EC51E08FEA94E02FEC95
:1001500037E07BBD6ABDAFEFEEE9F4E2A150E040CD
:10016000F040E1F700C000005BBD4ABDAFEFEEE933
:10017000F4E2A150E040F040E1F700C000009BBD78
:100180008ABDAFEFEEE9F4E2A150E040F040E1F7C4
:1001900000C000003BBD2ABDAFEFEEE9F4E2A15084
:1001A000E040F040E1F700C000009BBD8ABDAFEF2A
:1001B000EEE9F4E2A150E040F040E1F700C00000B9
:0601C000C8CFF894FFCF48
:0201C600DB0557
:00000001FF
