:100000000C942A000C943C000C943C000C943C0092
:100010000C943C000C943C000C943C000C943C0070
:100020000C943C000C943C000C943C000C943C0060
:100030000C943C000C944A000C943C000C943C0042
:100040000C943C000C943C000C943C000C943C0040
:100050000C943C0011241FBECFE5D8E0DEBFCDBF1D
:1000600020E0A0E6B0E001C01D92A136B207E1F7A2
:100070000E9450000C948D000C94000010BC83E38F
:1000800089B988E98AB986E880BD08955D9BFECF6D
:100090008CB908958F938CB1809360008F911895DF
:1000A0000E943E00D09A789483E50E94460084E541
:1000B0000E94460081E40E94460082E50E944600BC
:1000C00084E50E9446008DE00E9446008AE00E947E
:1000D0004600809160008133B1F4D89A8CE40E948C
:1000E00046008FE40E9446008DE00E9446008AE0B0
:1000F0000E944600109260008FE19EE40197F1F7A4
:1001000000C00000E6CF809160008033A9F7D89846
:0E0110008CE40E94460086E4E5CFF894FFCF11
:00000001FF
