:100000000C942A000C943F000C943F000C943F0089
:100010000C943F000C943F000C943F000C943F0064
:100020000C943F000C943F000C943F000C943F0054
:100030000C943F000C943F000C943F000C943F0044
:100040000C943F000C943F000C943F000C943F0034
:100050000C943F0011241FBECFE5D8E0DEBFCDBF1A
:1000600010E0A0E6B0E0E0E7FFE002C005900D92EE
:10007000A83FB107D9F70E945D000C9475070C9456
:10008000000010BC83E389B988E18AB986E880BDA5
:1000900008955D9BFECF8CB908955F9BFECF8CB118
:1000A0000895CF93DF93EC018991811103C0DF9113
:1000B000CF9108950E944900F7CFCDB7DEB7C6545F
:1000C000D1090FB6F894DEBF0FBECDBF0E9441002C
:1000D00080E690E00E94510000E010E0CE01019621
:1000E0006C0126968FAF26972796DFAE279786E975
:1000F000282E80E0382E5F9BFECF0E944D0090EDB1
:10010000980F9A3020F08D3211F08B3251F40F336A
:1001100011058CF7F601E00FF11F80830F5F1F4F71
:10012000EACF8A3029F08D3019F000E010E0E3CFFB
:10013000F601E00FF11F1082012BB9F326968FAD67
:10014000269727969FAD27970E9465047C0197FF0D
:100150004CC0BC01990F880B990B0E94E70120E06D
:1001600030E04CE652E422966FAF229723967FAFA1
:10017000239724968FAF249725969FAF2597259692
:100180006CAD7DAD8EAD9FAD25970E94060120E040
:1001900030E040EA51EC4B015C01C501B4010E9422
:1001A00073012B013C01A301920160E070E080E249
:1001B00091E40E9473029F938F937F936F93FF92BA
:1001C000EF923F922F92DF92CF920E948B040FB654
:1001D000F894DEBF0FBECDBF26968FAD269727962B
:1001E0009FAD27970E945100A0CFFF928F9387EC7D
:1001F00090E09F938F93DF92CF920E948B040F9099
:100200000F900F900F900F900F90E6CF5058BB2794
:10021000AA270E941E010C9439020E942B0238F07A
:100220000E94320220F039F49F3F19F426F40C9416
:1002300028020EF4E095E7FB0C942202E92F0E94BD
:100240004A0258F3BA17620773078407950720F02C
:1002500079F4A6F50C946C020EF4E0950B2EBA2FEF
:10026000A02D0B01B90190010C01CA01A0011124BC
:10027000FF27591B99F0593F50F4503E68F11A1668
:10028000F040A22F232F342F4427585FF3CF4695F9
:1002900037952795A795F0405395C9F77EF41F161B
:1002A000BA0B620B730B840BBAF09150A1F0FF0FE5
:1002B000BB1F661F771F881FC2F70EC0BA0F621FD1
:1002C000731F841F48F4879577956795B795F795C1
:1002D0009E3F08F0B0CF9395880F08F09927EE0F56
:1002E0009795879508950E9487010C9439020E9482
:1002F000320258F00E942B0240F029F45F3F29F0AF
:100300000C94220251110C946D020C9428020E944C
:100310004A0268F39923B1F3552391F3951B550BCA
:10032000BB27AA2762177307840738F09F5F5F4FC8
:10033000220F331F441FAA1FA9F335D00E2E3AF007
:10034000E0E832D091505040E695001CCAF72BD01F
:10035000FE2F29D0660F771F881FBB1F2617370770
:100360004807AB07B0E809F0BB0B802DBF01FF27A2
:1003700093585F4F3AF09E3F510578F00C9422025B
:100380000C946D025F3FE4F3983ED4F38695779525
:100390006795B795F7959F5FC9F7880F911D96955B
:1003A000879597F90895E1E0660F771F881FBB1FB7
:1003B000621773078407BA0720F0621B730B840B64
:1003C000BA0BEE1F88F7E0950895E89409C097FBF3
:1003D0003EF490958095709561957F4F8F4F9F4F1C
:1003E0009923A9F0F92F96E9BB279395F695879560
:1003F00077956795B795F111F8CFFAF4BB0F11F423
:1004000060FF1BC06F5F7F4F8F4F9F4F16C08823C9
:1004100011F096E911C0772321F09EE8872F762FFF
:1004200005C0662371F096E8862F70E060E02AF040
:100430009A95660F771F881FDAF7880F969587952C
:1004400097F9089597F99F6780E870E060E0089554
:100450009FEF80EC089500240A94161617061806DC
:100460000906089500240A941216130614060506B8
:100470000895092E0394000C11F4882352F0BB0F49
:1004800040F4BF2B11F460FF04C06F5F7F4F8F4FAC
:100490009F4F089557FD9058440F551F59F05F3FE7
:1004A00071F04795880F97FB991F61F09F3F79F096
:1004B00087950895121613061406551FF2CF469518
:1004C000F1DF08C0161617061806991FF1CF86959A
:1004D0007105610508940895E894BB27662777277E
:1004E000CB0197F90895FA01EE0FFF1F3096210511
:1004F0003105A1F16115710561F48038BFE39B07F7
:1005000049F168949038810561F08038BFEF9B070E
:1005100041F099234AF5FF3FE1053105210519F125
:10052000E8940894E795D901AA2329F4AB2FBE2FAC
:10053000F85FD0F310C0FF5F70F4A695E0F7F739CD
:1005400050F019F0FF3A38F49F779F930DD00F9039
:1005500007FC9058089546F00C94280260E070E083
:1005600080E89FE308954FE79F775F934F933F9312
:100570002F930E946E032F913F914F915F910E94A4
:10058000EA030C94CB0229F416F00C9422020C948A
:100590006C020C9428020E945202A8F39638A0F72D
:1005A00007F80F92E8942BE33AEA48EB5FE70E94E2
:1005B00000040F920F920F924DB75EB70F920E94F8
:1005C000B603EEEEFEE00E94FD024F915F91EF91C7
:1005D000FF91E595EE1FFF1F49F0FE57E0684427A5
:1005E000EE0F441FFA95E1F74195550B0E94300339
:1005F0000F9007FE0C9424030895DF93CF931F936D
:100600000F93FF92EF92DF927B018C01689406C0FA
:10061000DA2EEF010E94FD03FE01E894A5912591D9
:10062000359145915591A6F3EF010E941E01FE01FF
:100630009701A801DA9469F7DF90EF90FF900F918E
:100640001F91CF91DF9108959B01AC0160E070E0B4
:1006500080E89FE30C9473010C9422020C945704DD
:100660000E945202D8F39923C9F3940F511DA3F3AA
:100670009150504094F059F0882332F0660F771F64
:10068000881F91505040C1F79E3F51052CF7880FAD
:10069000911D9695879597F908955F3FACF0983E28
:1006A0009CF0BB27869577956795B79508F4B16060
:1006B0009395C1F7BB0F58F711F460FFE8CF6F5F58
:1006C0007F4F8F4F9F4FE3CF0C946D0216F00C9429
:1006D00057040C94280268940C9422020E9452023F
:1006E000A8F39923C1F3AEF3DF93CF931F930F9336
:1006F000FF92C92FDD2788232AF02197660F771FE5
:10070000881FDAF720E030E040E85FEB9FE38839AC
:1007100020F0803E38F021968F770E940701E6E1B5
:10072000FFE004C00E940701E3E4FFE00E94FD0235
:100730008B01BE01EC01FB2E6F5771097595771F78
:10074000880B990B0E94E70128E132E741E35FE360
:100750000E94FD03AF2D9801AE01FF900F911F91F4
:10076000CF91DF910E941E010C943902FA01DC0145
:10077000AA0FBB1F9B01AC01BF5728F422273327C8
:100780004427507820C0B75190F4AB2F00244695F1
:1007900037952795011CA395D2F3002071F0220F05
:1007A000331F441FB395DAF30ED00C940601613069
:1007B0007105A0E88A07B94630F49B01AC016627B1
:1007C000772788279078309621F0208331834283E1
:1007D000538308950E94FD030C9439020E942B025A
:1007E00038F00E94320220F0952311F00C9422027E
:1007F0000C94280211240C946D020E944A0270F39A
:10080000959FC1F3950F50E0551F629FF001729FB5
:10081000BB27F00DB11D639FAA27F00DB11DAA1FC4
:10082000649F6627B00DA11D661F829F2227B00D11
:10083000A11D621F739FB00DA11D621F839FA00D9C
:10084000611D221F749F3327A00D611D231F849FEC
:10085000600D211D822F762F6A2F11249F57504043
:100860009AF0F1F088234AF0EE0FFF1FBB1F661FBE
:10087000771F881F91505040A9F79E3F510580F087
:100880000C9422020C946D025F3FE4F3983ED4F383
:10089000869577956795B795F795E7959F5FC1F72B
:1008A000FE2B880F911D9695879597F908959F3F88
:1008B00031F0915020F4879577956795B795880F1B
:1008C000911D9695879597F90895FC01882799279A
:1008D000E89421912032E9F3293010F02E30C8F34A
:1008E0002B3241F02D3239F4689404C00E94830405
:1008F000820F911D219120532A30C0F31EF4909550
:1009000081959F4F08957AE0979F902D879F802D26
:10091000910D11240895AEE0B0E0E1E9F4E00C940B
:100920004C070D891E8986E08C831A8309838FEF1B
:100930009FE79E838D83AE01475E5F4F6F89788D01
:10094000CE0101960E94AE042F813885020F131F3D
:10095000F80110822E96E4E00C946807ABE0B0E05A
:10096000E4EBF4E00C943F076C017B018A01FC018D
:1009700017821682838181FFDAC19AE0492EF6013F
:100980002381F70123FD859123FF81917F0181154B
:1009900009F41FC1853239F423FD959123FF91910C
:1009A0007F01953229F4B60190E00E94B006E7CFAE
:1009B00030E0612C512C712CF0E27F1640F59B3217
:1009C000D9F058F49032D1F09332F1F09E3299F58B
:1009D00076FCFFC0689476F806C09D3291F09033A3
:1009E000C1F4689470F8F70123FD959123FF91916C
:1009F0007F019111E1CF29C0689471F8689472F871
:100A0000F2CF689473F8EFCF689474F8ECCF77FC6A
:100A10001CC080ED890F8A30C8F676FE05C0649C44
:100A2000800D1124682EDFCF549C800D1124582E88
:100A3000689475F8D8CF9C3619F4689477F8D3CFBA
:100A40009C3409F44BC0983671F2892F8F7D855400
:100A5000833008F445C0933609F466C0933709F42F
:100A600069C0933509F475C0943619F0993609F0C8
:100A70009FC0F80177FE95C061917191819191912C
:100A80008F01272D2F76722E97FF09C090958095A4
:100A9000709561957F4F8F4F9F4F689477F82AE04C
:100AA00030E0AE014F5F5F4F5A010E94E0068A19A5
:100AB000A82E76FEC5C0872D8E7FA61408F0BFC075
:100AC00074FE12C172FC06C1F72DFE7E7F2EB62C7D
:100AD000872D8678811509F4C0C001C131E083CF2C
:100AE0003115F9F0085F1F4F8FE3898388248394C1
:100AF000912CAE014F5F5F4F5A01E89477F873FC79
:100B000003C085149104B0F181149104D1F55114FE
:100B100009F435CFB60180E290E00E94B0065A9405
:100B2000F6CF0C5F1F4FE0CFF801808189830E5F05
:100B30001F4FDCCFF801A190B1908F01662D70E0BE
:100B400076FC02C06FEF7FEFC5010E94A5064C0145
:100B5000D4CFF801A190B1908F01662D70E076FCA2
:100B600002C06FEF7FEFC5010E949A064C016894A6
:100B700077F8C5CFB60180E290E00E94B0065A94A3
:100B8000C0CFF50177FC859177FE81915F01B601B9
:100B900090E00E94B00651105A94F1E08F1A91082B
:100BA000B3CF61917191072E000C880B990B68CF20
:100BB000372CE89434F82AE030E0953739F1572D96
:100BC000597F352E903799F058F49835A9F09F3613
:100BD000D9F0F601868197812B96E1E10C945B07B1
:100BE0009837B9F774FC05C020E130E00FC0689475
:100BF00034F8689432F8F8CF74FE03C0872D86600D
:100C0000382E20E132E002C028E030E0F80137FE63
:100C100011C061917191819191918F01FE01319685
:100C20005F01AF010E94E0068A19A82E732CE89498
:100C300077F83FCF6191719180E090E0EECF782E10
:100C4000BA2C74FE45CFFE01EA0DF11D8081803380
:100C500009F043C0272D297E722E73FC0EC070FE52
:100C60004FC06A2CB51418F4650C6B18B52C852D83
:100C70008B195B1408F480E0B80EB51408F042C07C
:100C80005B1874FE41C0B60180E390E00E94B0069C
:100C900072FE09C088E590E071FC02C088E790E030
:100CA000B6010E94B006A614D8F1AA94B12C4FEF59
:100CB000A41AB40ACE0101963C01A80EB91EF50192
:100CC00082915F01B60190E00E94B0066A147B0435
:100CD000B1F71DCFB62C782EB6CF72FC02C0B394FC
:100CE000BCCFB394B394B9CFB62C782EF1CEB60165
:100CF00080E290E00E94B00633943514C0F3B7CF81
:100D00003B2CFBCF512CBDCF872D8678811559F216
:100D100080E271FC8BE277FC8DE2B60190E0C1CFFE
:100D2000B60180E390E00E94B0066A94BCCF8FEFDA
:100D30009FEF52CFFC010590615070400110D8F731
:100D4000809590958E0F9F1F0895FC016150704013
:100D500001900110D8F7809590958E0F9F1F0895F0
:100D60000F931F93CF93DF93182F092FEB018B81E4
:100D700081FD09C01FEF0FEF812F902FDF91CF91E1
:100D80001F910F91089582FF14C02E813F818C81A5
:100D90009D81281739073CF4E881F981CF0101963C
:100DA0009983888310838E819F8101969F838E8390
:100DB000E3CFE885F985812F0995892BA1F3DACF57
:100DC000FA01AA27283051F1203181F1E8946F937C
:100DD0006E7F6E5F7F4F8F4F9F4FAF4FB1E03ED022
:100DE000B4E03CD0670F781F891F9A1FA11D680FC0
:100DF000791F8A1F911DA11D6A0F711D811D911DF3
:100E0000A11D20D009F468943F912AE0269F112467
:100E10003019305D3193DEF6CF010895462F4770CB
:100E2000405D4193B3E00FD0C9F7F6CF462F4F7026
:100E3000405D4A3318F0495D31FD4052419302D084
:100E4000A9F7EACFB4E0A69597958795779567952A
:100E5000BA95C9F700976105710508959B01AC012A
:100E60000A2E06945795479537952795BA95C9F751
:100E7000620F731F841F951FA01D08952F923F922C
:100E80004F925F926F927F928F929F92AF92BF929A
:100E9000CF92DF92EF92FF920F931F93CF93DF9346
:100EA000CDB7DEB7CA1BDB0B0FB6F894DEBF0FBEA3
:100EB000CDBF09942A88398848885F846E847D84F0
:100EC0008C849B84AA84B984C884DF80EE80FD80F2
:100ED0000C811B81AA81B981CE0FD11D0FB6F89468
:100EE000DEBF0FBECDBFED010895F894FFCF0763BD
:100EF0004236B79BD8A71A39685618AEBAAB558C8C
:100F00001D3CB7CC5763BD6DEDFD753EF6177231D4
:100F1000BF000000803F08000000BE922449123E3E
:100F2000ABAAAA2ABECDCCCC4C3E00000080BEAB02
:100F3000AAAAAA3E00000000BF000000803F0000F7
:100F4000000000084178D3BB4387D1133D190E3C04
:100F5000C3BD4282AD2B3E68EC8276BED98FE1A93B
:100F60003E4C80EFFFBE01C4FF7F3F000000000049
:100F700041546D65676133322052656164792E207A
:100F800053656E642064697374616E6365202869BB
:100F90006E74656765722920766961207365726970
:100FA000616C2E0D0A005265636569766564205296
:100FB0005353493A2025642064426D202D3E20453C
:100FC00073742E2044697374616E63653A20252E14
:100FD0003266206D0D0A005265636569766564208E
:100FE00056616C75653A2025642028696E746572B7
:100FF0007072657465642061732064697374616ED6
:08100000636529206D0D0A0053
:00000001FF
