:100000000C942A000C9434000C9434000C943400AA
:100010000C9434000C9434000C9434000C94340090
:100020000C9434000C9434000C9434000C94340080
:100030000C9434000C9434000C9434000C94340070
:100040000C9434000C9434000C9434000C94340060
:100050000C94340011241FBECFE5D8E0DEBFCDBF25
:100060000E9436000C9446000C94000081E087BB8F
:1000700080E091E088BB89272FE33DE043E02150F9
:1000800030404040E1F700C00000F4CFF894FFCFCB
:00000001FF
